S0150000547261666669635F4C696768742E73726563F9
S11300000C942A000C943F010C9434000C9434009A
S11300100C9434000C9434000C9434000C9434008C
S11300200C9434000C9434000C9434000C9434007C
S11300300C9434000C9434000C9434000C9434006C
S11300400C9434000C9434000C9434000C9434005C
S11300500C94340011241FBECFE5D8E0DEBFCDBF21
S11300600E9493010C9429060C94000061E480E042
S11300700E94660161E481E00E94660161E482E01D
S11300800E94660162E480E00E94660162E481E00D
S11300900E94660162E482E00E94660164E482E0F8
S11300A00E9457010E946803789485B7836085BFD6
S11300B08BB780648BBF0895CF93C0E015C061E413
S11300C081E00E94750160E070E08AEF93E40E9491
S11300D0700361E481E00E94840160E070E08AEFD3
S11300E093E40E947003CF5FC53048F3CF91089525
S11300F061E480E00E94750160E070E48CE995E4BD
S11301000E94700361E480E00E9484010E945C000C
S113011061E482E00E94750160E070E48CE995E49A
S11301200E94700361E482E00E9484010E945C00EA
S1130130DFCF0E947800CF93C0E01DC061E481E06E
S11301400E94750162E481E00E94750160E070E044
S11301508AEF93E40E94700361E481E00E948401C9
S113016062E481E00E94840160E070E08AEF93E43D
S11301700E947003CF5FC53008F3CF91089562E405
S113018080E00E94750160E070E48CE995E40E94CF
S1130190700361E482E00E9484010E949B0062E497
S11301A080E00E94840162E482E00E94750161E4BF
S11301B080E00E94750160E070E48CE995E40E949F
S11301C0700362E482E00E94840162E481E00E94A0
S11301D0840162E480E00E948401789485B783609E
S11301E085BF8BB780648BBF0E94780062E482E095
S11301F00E9475010E949B0062E482E00E948401D7
S113020062E480E00E94750161E480E00E94840160
S113021061E482E00E94750160E070E48CE995E499
S11302200E94700361E482E00E9484010E949B00AA
S113023062E480E00E94840162E482E00E9475012D
S113024061E480E00E94750160E070E48CE995E46B
S11302500E94700362E482E00E94840162E481E00F
S11302600E94840162E480E00E948401789485B74E
S1130270836085BF8BB780648BBF0E9478001F9218
S11302800F920FB60F921124CF93DF931F92CDB725
S1130290DEB7F894AE014F5F5F4F61E482E00E94E5
S11302A0F602898181110E94BF000E94F600883005
S11302B048F49FEB960F943038F440E00E949A0182
S11302C081E0089582E0089582E00895883048F43A
S11302D09FEB960F943038F441E00E949A0181E03C
S11302E0089582E0089582E00895883048F49FEBF1
S11302F0960F943038F441E00E94480281E008955A
S113030082E0089582E00895883048F49FEB960FC8
S1130310943038F440E00E94480281E0089582E07D
S1130320089582E008950E9436000E94990080E0BA
S113033090E00895423008F09BC0883008F09AC0DD
S11303409FEB960F943008F097C0623469F118F46B
S1130350613441F093C0633409F448C0643409F44F
S113036066C08CC041110FC04AB321E030E0B9012E
S113037002C0660F771F8A95E2F7CB01809584232C
S11303808ABB81E00895413009F07AC04AB321E084
S113039030E0B90102C0660F771F8A95E2F7CB01FE
S11303A0842B8ABB81E0089541110FC047B321E03B
S11303B030E0B90102C0660F771F8A95E2F7CB01DE
S11303C08095842387BB81E00895413009F05AC0A9
S11303D047B321E030E0B90102C0660F771F8A9568
S11303E0E2F7CB01842B87BB81E0089541110FC054
S11303F044B321E030E0B90102C0660F771F8A954B
S1130400E2F7CB018095842384BB81E008954130D9
S1130410D9F544B321E030E0B90102C0660F771F7B
S11304208A95E2F7CB01842B84BB81E008954111C6
S11304300FC041B321E030E0B90102C0660F771F5D
S11304408A95E2F7CB018095842381BB81E00895EE
S11304504130E1F441B321E030E0B90102C0660F5C
S1130460771F8A95E2F7CB01842B81BB81E0089545
S113047082E0089582E0089582E0089581E008957D
S113048081E0089581E0089581E0089581E0089570
S1130490423008F09BC0883008F09AC09FEB960F5A
S11304A0943008F097C0623469F118F4613441F073
S11304B093C0633409F448C0643409F466C08CC042
S11304C041110FC04BB321E030E0B90102C0660F07
S11304D0771F8A95E2F7CB01809584238BBB81E05B
S11304E00895413009F07AC04BB321E030E0B901FE
S11304F002C0660F771F8A95E2F7CB01842B8BBB72
S113050081E0089541110FC048B321E030E0B90102
S113051002C0660F771F8A95E2F7CB01809584238A
S113052088BB81E00895413009F05AC048B321E006
S113053030E0B90102C0660F771F8A95E2F7CB015C
S1130540842B88BB81E0089541110FC045B321E09D
S113055030E0B90102C0660F771F8A95E2F7CB013C
S11305608095842385BB81E008954130D9F545B356
S113057021E030E0B90102C0660F771F8A95E2F7E7
S1130580CB01842B85BB81E0089541110FC042B398
S113059021E030E0B90102C0660F771F8A95E2F7C7
S11305A0CB018095842382BB81E008954130E1F43E
S11305B042B321E030E0B90102C0660F771F8A958B
S11305C0E2F7CB01842B82BB81E0089582E0089599
S11305D082E0089582E0089581E0089581E008951D
S11305E081E0089581E0089581E00895883008F05D
S11305F069C09FEB960F943008F066C0623401F135
S113060018F4613439F062C0633481F1643409F45C
S113061043C05CC069B321E030E0082E02C0220F61
S1130620331F0A94E2F770E026233723B90102C08E
S1130630759567958A95E2F7FA01608381E00895DC
S113064066B321E030E0082E02C0220F331F0A9463
S1130650E2F770E026233723B90102C07595679548
S11306608A95E2F7FA01608381E0089563B321E09B
S113067030E0082E02C0220F331F0A94E2F770E024
S113068026233723B90102C0759567958A95E2F749
S1130690FA01608381E0089560B321E030E0082E20
S11306A002C0220F331F0A94E2F770E02623372397
S11306B0B90102C0759567958A95E2F7FA016083DE
S11306C081E0089582E0089582E0089581E008952C
S11306D083B7877F83BF83B78F7B83BF81E0089510
S11306E08F929F92AF92BF92CF92DF92EF92FF923E
S11306F0CF93DF936B017C0120E030E0A9010E94DD
S1130700900488230CF47CC020E030E04AE754E4F1
S1130710C701B6010E9495046B017C012DEB37E300
S113072046E859E30E9490048823CCF4A70196017B
S11307306DEB77E386E899E30E940C040E940705B9
S113074080E090E00E9436052DEB37E346E855E360
S11307500E9495040E940705C1E0D0E03CC02DEB47
S113076037E346E859E3C701B6010E9490048823A1
S113077079F12DEB37E346E859E3C701B6010E944E
S113078095040E9479040E9407054B015C01EB016A
S11307902DEB37E346E855E3C701B6010E94950403
S11307A06B017C01B40180E090E00E9436059B015E
S11307B0AC01C701B6010E9495049B01AC0160E045
S11307C070E080E893E40E940C040E94070503C0D3
S11307D0C1E0D0E060E062BF83B7816083BF20E006
S11307E030E008C008B600FEFDCF88B7816088BF3E
S11307F02F5F3F4F2C173D07A8F313BE81E001C0C4
S113080082E0DF91CF91FF90EF90DF90CF90BF9087
S1130810AF909F908F9008955058BB27AA270E94AD
S113082024040C94D7050E94C90538F00E94D00511
S113083020F039F49F3F19F426F40C94C6050EF405
S1130840E095E7FB0C949705E92F0E94E80558F31F
S1130850BA17620773078407950720F079F4A6F5A1
S11308600C9422060EF4E0950B2EBA2FA02D0B014A
S1130870B90190010C01CA01A0011124FF27591BE1
S113088099F0593F50F4503E68F11A16F040A22FE7
S1130890232F342F4427585FF3CF46953795279558
S11308A0A795F0405395C9F77EF41F16BA0B620B57
S11308B0730B840BBAF09150A1F0FF0FBB1F661F9E
S11308C0771F881FC2F70EC0BA0F621F731F841FE1
S11308D048F4879577956795B795F7959E3F08F007
S11308E0B0CF9395880F08F09927EE0F97958795C9
S11308F008950E940A0690F09F3748F4911116F467
S11309000C94230660E070E080E89FE3089526F0ED
S11309101B16611D711D811D0C949D050C94B80559
S11309200E94730508F481E008950E94A9040C94C0
S1130930D7050E94D00558F00E94C90540F029F45B
S11309405F3F29F00C94970551110C9423060C94E5
S1130950C6050E94E80568F39923B1F3552391F382
S1130960951B550BBB27AA2762177307840738F01A
S11309709F5F5F4F220F331F441FAA1FA9F335D077
S11309800E2E3AF0E0E832D091505040E695001C2B
S1130990CAF72BD0FE2F29D0660F771F881FBB1FE5
S11309A0261737074807AB07B0E809F0BB0B802DC3
S11309B0BF01FF2793585F4F3AF09E3F510578F0EF
S11309C00C9497050C9423065F3FE4F3983ED4F30C
S11309D0869577956795B795F7959F5FC9F7880FC3
S11309E0911D9695879597F90895E1E0660F771F15
S11309F0881FBB1F621773078407BA0720F0621BA6
S1130A00730B840BBA0BEE1F88F7E09508950E94D0
S1130A10F00588F09F5798F0B92F9927B751B0F097
S1130A20E1F0660F771F881F991F1AF0BA95C9F76E
S1130A3014C0B13091F00E942206B1E008950C94E4
S1130A402206672F782F8827B85F39F0B93FCCF397
S1130A50869577956795B395D9F73EF490958095EB
S1130A60709561957F4F8F4F9F4F0895E89409C00B
S1130A7097FB3EF490958095709561957F4F8F4FCD
S1130A809F4F9923A9F0F92F96E9BB279395F695E3
S1130A90879577956795B795F111F8CFFAF4BB0F61
S1130AA011F460FF1BC06F5F7F4F8F4F9F4F16C0C5
S1130AB0882311F096E911C0772321F09EE8872F4F
S1130AC0762F05C0662371F096E8862F70E060E00B
S1130AD02AF09A95660F771F881FDAF7880F969584
S1130AE0879597F90895990F0008550FAA0BE0E828
S1130AF0FEEF16161706E807F907C0F012161306DC
S1130B00E407F50798F0621B730B840B950B39F41B
S1130B100A2661F0232B242B252B21F408950A2681
S1130B2009F4A140A6958FEF811D811D089597F9C1
S1130B309F6780E870E060E00895882371F477236C
S1130B4021F09850872B762F07C0662311F499273C
S1130B500DC09051862B70E060E02AF09A95660FE4
S1130B60771F881FDAF7880F9695879597F9089568
S1130B709F3F31F0915020F4879577956795B7950D
S1130B80880F911D9695879597F908959FEF80ECAE
S1130B90089500240A9416161706180609060895DF
S1130BA000240A9412161306140605060895092E45
S1130BB00394000C11F4882352F0BB0F40F4BF2BB4
S1130BC011F460FF04C06F5F7F4F8F4F9F4F0895F4
S1130BD057FD9058440F551F59F05F3F71F04795EA
S1130BE0880F97FB991F61F09F3F79F087950895CF
S1130BF0121613061406551FF2CF4695F1DF08C0EE
S1130C00161617061806991FF1CF8695710561050A
S1130C10089408950E94F005A0F0BEE7B91788F47F
S1130C20BB279F3860F41616B11D672F782F8827CD
S1130C30985FF7CF869577956795B11D939596390B
S1130C40C8F30895E894BB2766277727CB0197F963
S1090C500895F894FFCFA3
S9030000FC
